:100000000C945D000C94B1030C948A030C9485004D
:100010000C9485000C9485000C9485000C9485004C
:100020000C9485000C9485000C9485000C9485003C
:100030000C9485000C9485000C9485000C9485002C
:100040000C94E8020C9485000C9458030C94320331
:100050000C9485000C9485000C9485000C9485000C
:100060000C9485000C94850000000008000201003B
:100070000003040700000000000000000000000072
:10008000250028002B0000000000240027002A0083
:10009000040404040404040402020202020203032E
:1000A0000303030301020408102040800102040836
:1000B0001020010204081020B40411241FBECFEF49
:1000C000D8E0DEBFCDBF11E0A0E0B1E0E0E2FAE0B1
:1000D00002C005900D92A432B107D9F721E0A4E245
:1000E000B1E001C01D92AE3CB207E1F710E0CDE5F2
:1000F000D0E004C02197FE010E940305CC35D10752
:10010000C9F70E94D8030C940E050C9400000895C2
:10011000CF92DF92EF92FF920F931F93CF93DF93D3
:100120006C017A018B01C0E0D0E0CE15DF0589F0CB
:10013000D8016D918D01D601ED91FC910190F08176
:10014000E02DC6010995892B11F47E0102C021968C
:10015000ECCFC701DF91CF911F910F91FF90EF90EE
:10016000DF90CF900895FC01918D828D981761F0FA
:10017000828DDF01A80FB11D5D968C91928D9F5FDE
:100180009F73928F90E008958FEF9FEF0895FC0189
:10019000918D828D981731F0828DE80FF11D858D3C
:1001A00090E008958FEF9FEF0895FC01918D228DCF
:1001B000892F90E0805C9F4F821B91098F73992754
:1001C000089581E391E00E94D50021E0892B09F494
:1001D00020E0822F0895FC01848DDF01A80FB11D5E
:1001E000A35ABF4F2C91848D90E001968F7399276D
:1001F000848FA689B7892C93A089B1898C9180645A
:100200008C93938D848D981306C00288F389E02D1A
:1002100080818F7D80830895EF92FF920F931F93CB
:10022000CF93DF93EC0181E0888F9B8D8C8D9813A9
:1002300005C0E889F989808185FD24C0F62E0B8DE3
:1002400010E00F5F1F4F0F731127E02E8C8DE81207
:100250000CC00FB607FCFACFE889F989808185FFC9
:10026000F5CFCE010E94EB00F1CF8B8DFE01E80FA0
:10027000F11DE35AFF4FF0820B8FEA89FB898081E1
:10028000806207C0EE89FF896083E889F9898081EF
:100290008064808381E090E0DF91CF911F910F9186
:1002A000FF90EF900895CF93DF93EC01888D882322
:1002B000C9F0EA89FB89808185FD05C0A889B989D3
:1002C0008C9186FD0FC00FB607FCF5CF808185FFAE
:1002D000F2CFA889B9898C9185FFEDCFCE010E941C
:1002E000EB00E7CFDF91CF91089580E090E0892B7C
:1002F00029F00E94E10081110C940000089590E023
:10030000FC01E859FF4F3491FC01EC55FF4F24915B
:10031000FC01E057FF4FE491EE2309F43BC0332387
:1003200039F1333091F038F43130A9F0323001F541
:1003300084B58F7D12C0373091F03830A1F0343061
:10034000B9F4809180008F7D03C0809180008F7709
:10035000809380000DC084B58F7784BD09C08091E3
:10036000B0008F7703C08091B0008F7D8093B00084
:10037000F0E0EE0FFF1FE458FF4FA591B4918FB747
:10038000F894EC91611103C020952E2301C02E2B0F
:100390002C938FBF0895482F50E0FA01EC55FF4F82
:1003A0009491FA01E057FF4F2491222399F030E015
:1003B000220F331FF901EA57FF4FA591B491F901BC
:1003C000E458FF4F259134912FB7F894EC91E92B25
:1003D000EC932FBF6115710511F460E004C06F3F0D
:1003E000710519F461E00C947F01FA01E859FF4F9F
:1003F000E491E330F9F048F4E130B9F0E230A1F5EE
:1004000084B5806284BD68BD0895E730E9F0E830C6
:1004100019F1E43049F5809180008062809380007A
:1004200070938B0060938A00089584B5806884BDC2
:1004300067BD0895809180008068809380007093EC
:1004400089006093880008958091B000806880934F
:10045000B0006093B30008958091B00080628093F3
:10046000B0006093B4000895603871050CF0BACF05
:10047000B4CF80912401909125010196909325019C
:1004800080932401059769F48091260190912701BA
:1004900001969093270180932601109225011092D6
:1004A00024010895009769F0FC0101900020E9F70C
:1004B0003197AF01481B590BBC0181E391E00C94CB
:1004C000880080E090E008958F929F92AF92BF9253
:1004D000CF92DF92EF92FF920F931F93CF93DF9310
:1004E000CDB7DEB7A1970FB6F894DEBF0FBECDBF74
:1004F0006C01990FEE08FF08F7FE31C0E091310161
:10050000F09132010190F081E02D6DE281E391E004
:1005100009958C0122273327A9012C193D094E0981
:100520005F0919A2CE0181967C019AE0892E912C57
:10053000A12CB12CCA01B901A50194010E94E104CA
:10054000605DF70162937F01211531054105510579
:1005500089F7CF010E945202080F191F1EC0A70180
:10056000960119A28E010F5D1F4F8AE0C82ED12C73
:10057000E12CF12CCA01B901A70196010E94E10406
:10058000605DF80162938F01211531054105510528
:1005900089F7CF010E9452028C0184E191E00E9410
:1005A0005202800F911FA1960FB6F894DEBF0FBEC6
:1005B000CDBFDF91CF911F910F91FF90EF90DF9012
:1005C000CF90BF90AF909F908F9008950E940905A3
:1005D0001F920F920FB60F9211242F933F938F9378
:1005E0009F93AF93BF9380912D0190912E01A09185
:1005F0002F01B091300130912C0123E0230F2D37D2
:1006000020F40196A11DB11D05C026E8230F029616
:10061000A11DB11D20932C0180932D0190932E01DB
:10062000A0932F01B093300180912801909129016E
:10063000A0912A01B0912B010196A11DB11D8093BB
:10064000280190932901A0932A01B0932B01BF9117
:10065000AF919F918F913F912F910F900FBE0F906F
:100660001F9018951F920F920FB60F9211242F937F
:100670003F934F935F936F937F938F939F93AF932A
:10068000BF93EF93FF9381E391E00E94EB00FF9112
:10069000EF91BF91AF919F918F917F916F915F91FA
:1006A0004F913F912F910F900FBE0F901F90189573
:1006B0001F920F920FB60F9211242F938F939F9337
:1006C000EF93FF93E0914101F09142018081E0912D
:1006D0004701F091480182FD12C0908180914A014A
:1006E0008F5F8F7320914B01821751F0E0914A0187
:1006F000F0E0EF5CFE4F958F80934A0101C080814E
:10070000FF91EF919F918F912F910F900FBE0F90BE
:100710001F9018951F920F920FB60F9211242F93CE
:100720003F934F935F936F937F938F939F93AF9379
:10073000BF93EF93FF93E0910201F09103010995BC
:10074000FF91EF91BF91AF919F918F917F916F91A9
:100750005F914F913F912F910F900FBE0F901F907F
:1007600018951F920F920FB60F9211242F933F935B
:100770004F935F936F937F938F939F93AF93BF93A9
:10078000EF93FF93E0910001F09101010995FF9132
:10079000EF91BF91AF919F918F917F916F915F91F9
:1007A0004F913F912F910F900FBE0F901F90189572
:1007B000789484B5826084BD84B5816084BD85B53C
:1007C000826085BD85B5816085BD80916E00816048
:1007D00080936E00109281008091810082608093EE
:1007E00081008091810081608093810080918000F0
:1007F0008160809380008091B10084608093B1001B
:100800008091B00081608093B00080917A00846014
:1008100080937A0080917A00826080937A00809140
:100820007A00816080937A0080917A00806880935A
:100830007A001092C100E6EAF0E02491E2E9F0E0EB
:1008400084918823C1F090E0880F991FFC01EA573A
:10085000FF4FC591D491FC01E458FF4FA591B4918D
:100860009FB7F8943881822F809583238883EC91F9
:10087000E22BEC939FBF89E392E090930101809378
:10088000000180916900836080936900E89AE0919B
:100890004101F091420182E08083E0913D01F091BD
:1008A0003E011082E0913F01F09140018FEC808386
:1008B00010924901E0914501F091460186E0808364
:1008C000E0914301F0914401808180618083E09157
:1008D0004301F0914401808188608083E09143016D
:1008E000F0914401808180688083E0914301F09120
:1008F000440180818F7D808366EE70E08AE00E94F3
:10090000CB0166EE70E089E00E94CB01C7E8D0E041
:100910008091260190912701029779F46FEF70E0A2
:100920008AE00E94CB016FEF70E089E00E94CB016A
:10093000E898D0930101C093000187E191E00E9403
:10094000520280912401909125010E9464028EE15F
:1009500091E00E94520280912601909127010E940D
:1009600064020E947501D4CFE1E3F1E013821282A8
:1009700088EE93E0A0E0B0E084839583A683B783FC
:1009800088E091E09183808385EC90E0958784876F
:1009900084EC90E09787868780EC90E0918B808B49
:1009A00081EC90E0938B828B82EC90E0958B848B32
:1009B00086EC90E0978B868B118E128E138E148EA0
:1009C0000895A1E21A2EAA1BBB1BFD010DC0AA1F90
:1009D000BB1FEE1FFF1FA217B307E407F50720F0A8
:1009E000A21BB30BE40BF50B661F771F881F991F23
:1009F0001A9469F760957095809590959B01AC016C
:100A0000BD01CF010895EE0FFF1F0590F491E02D79
:100A1000099481E090E0F8940C940E05F894FFCFCF
:100A200087008700000000000C018800D500B3009B
:100A3000C70053010D0A0050554C53452000524544
:040A4000562000003C
:00000001FF
